{
  "address": "0x5828132CF2ef5C95DeE2CDc81764a4ABF0072A04",
  "abi": [
    {
      "inputs": [
        {
          "internalType": "contract IStdReference",
          "name": "_ref",
          "type": "address"
        },
        {
          "internalType": "contract CToken[]",
          "name": "_cTokens",
          "type": "address[]"
        },
        {
          "internalType": "string[]",
          "name": "_symbols",
          "type": "string[]"
        },
        {
          "internalType": "uint256[]",
          "name": "_baseUnits",
          "type": "uint256[]"
        }
      ],
      "stateMutability": "nonpayable",
      "type": "constructor"
    },
    {
      "inputs": [],
      "name": "ORACLE_DECIMALS",
      "outputs": [
        {
          "internalType": "uint256",
          "name": "",
          "type": "uint256"
        }
      ],
      "stateMutability": "view",
      "type": "function"
    },
    {
      "inputs": [],
      "name": "ORACLE_STALENESS_THRESHOLD",
      "outputs": [
        {
          "internalType": "uint256",
          "name": "",
          "type": "uint256"
        }
      ],
      "stateMutability": "view",
      "type": "function"
    },
    {
      "inputs": [],
      "name": "QUOTE",
      "outputs": [
        {
          "internalType": "string",
          "name": "",
          "type": "string"
        }
      ],
      "stateMutability": "view",
      "type": "function"
    },
    {
      "inputs": [
        {
          "internalType": "contract CToken",
          "name": "",
          "type": "address"
        }
      ],
      "name": "baseUnits",
      "outputs": [
        {
          "internalType": "uint256",
          "name": "",
          "type": "uint256"
        }
      ],
      "stateMutability": "view",
      "type": "function"
    },
    {
      "inputs": [
        {
          "internalType": "contract CToken",
          "name": "",
          "type": "address"
        }
      ],
      "name": "cTokenSymbols",
      "outputs": [
        {
          "internalType": "string",
          "name": "",
          "type": "string"
        }
      ],
      "stateMutability": "view",
      "type": "function"
    },
    {
      "inputs": [
        {
          "internalType": "contract CToken",
          "name": "cToken",
          "type": "address"
        }
      ],
      "name": "getUnderlyingPrice",
      "outputs": [
        {
          "internalType": "uint256",
          "name": "",
          "type": "uint256"
        }
      ],
      "stateMutability": "view",
      "type": "function"
    },
    {
      "inputs": [],
      "name": "isPriceOracle",
      "outputs": [
        {
          "internalType": "bool",
          "name": "",
          "type": "bool"
        }
      ],
      "stateMutability": "view",
      "type": "function"
    },
    {
      "inputs": [],
      "name": "ref",
      "outputs": [
        {
          "internalType": "contract IStdReference",
          "name": "",
          "type": "address"
        }
      ],
      "stateMutability": "view",
      "type": "function"
    }
  ],
  "transactionHash": "0xa863b9cc83e6795491254f9cdeff539c76f2b7262a168d10c130097a941bf7bc",
  "args": [
    "0xA55d9ef16Af921b70Fed1421C1D298Ca5A3a18F1",
    [
      "0x032BAdc3b53F0aCc68a0B2Aa8AA56B1e3b3D285a",
      "0xd6B2D2B0eda2403D28f244B8A666883b59B85BfD",
      "0x05836d4c6a7aa280CE074C936BE071D885e2c4C8",
      "0x724526880957793Ea3860eeee10FB8688290Ca86",
      "0x5C91022DA0a2D0779cB4d5603Ea2087Bfafef5e6"
    ],
    [
      "ETH",
      "USDC",
      "USDT",
      "ONE",
      "ONE"
    ],
    [
      "1000000000000000000",
      "1000000",
      "1000000",
      "1000000000000000000",
      "1000000000000000000"
    ]
  ],
  "numDeployments": 1,
  "solcInputHash": "3736d953d58767f37b273d93f7bf14d3",
  "bytecode": "0x60806040523480156200001157600080fd5b5060405162000d7938038062000d7983398101604081905262000034916200046d565b8151835114801562000047575080518351145b620000985760405162461bcd60e51b815260206004820152601f60248201527f617272617973206861766520746f206265207468652073616d652073697a6500604482015260640160405180910390fd5b600280546001600160a01b0319166001600160a01b03861617905560005b8351811015620001ab57828181518110620000d557620000d56200057d565b6020026020010151600080868481518110620000f557620000f56200057d565b60200260200101516001600160a01b03166001600160a01b03168152602001908152602001600020908051906020019062000132929190620001b6565b508181815181106200014857620001486200057d565b6020026020010151600160008684815181106200016957620001696200057d565b60200260200101516001600160a01b03166001600160a01b03168152602001908152602001600020819055508080620001a29062000593565b915050620000b6565b5050505050620005fa565b828054620001c490620005bd565b90600052602060002090601f016020900481019282620001e8576000855562000233565b82601f106200020357805160ff191683800117855562000233565b8280016001018555821562000233579182015b828111156200023357825182559160200191906001019062000216565b506200024192915062000245565b5090565b5b8082111562000241576000815560010162000246565b6001600160a01b03811681146200027257600080fd5b50565b634e487b7160e01b600052604160045260246000fd5b604051601f8201601f191681016001600160401b0381118282101715620002b657620002b662000275565b604052919050565b60006001600160401b03821115620002da57620002da62000275565b5060051b60200190565b6000601f8381840112620002f757600080fd5b82516020620003106200030a83620002be565b6200028b565b82815260059290921b850181019181810190878411156200033057600080fd5b8287015b84811015620003f45780516001600160401b0380821115620003565760008081fd5b818a0191508a603f8301126200036c5760008081fd5b858201518181111562000383576200038362000275565b62000396818a01601f191688016200028b565b915080825260408c81838601011115620003b05760008081fd5b60005b82811015620003d0578481018201518482018a01528801620003b3565b82811115620003e25760008984860101525b50505084525091830191830162000334565b50979650505050505050565b600082601f8301126200041257600080fd5b81516020620004256200030a83620002be565b82815260059290921b840181019181810190868411156200044557600080fd5b8286015b8481101562000462578051835291830191830162000449565b509695505050505050565b600080600080608085870312156200048457600080fd5b845162000491816200025c565b602086810151919550906001600160401b0380821115620004b157600080fd5b818801915088601f830112620004c657600080fd5b8151620004d76200030a82620002be565b81815260059190911b8301840190848101908b831115620004f757600080fd5b938501935b828510156200052257845162000512816200025c565b82529385019390850190620004fc565b60408b015190985094505050808311156200053c57600080fd5b6200054a89848a01620002e4565b945060608801519250808311156200056157600080fd5b5050620005718782880162000400565b91505092959194509250565b634e487b7160e01b600052603260045260246000fd5b6000600019821415620005b657634e487b7160e01b600052601160045260246000fd5b5060010190565b600181811c90821680620005d257607f821691505b60208210811415620005f457634e487b7160e01b600052602260045260246000fd5b50919050565b61076f806200060a6000396000f3fe608060405234801561001057600080fd5b50600436106100885760003560e01c80634dbe86971161005b5780634dbe86971461011357806366331bba1461011d5780639c57983914610135578063fc57d4df1461015757600080fd5b80631ea155021461008d57806321a78f68146100a85780632c79b99d146100d357806336c5215e146100f3575b600080fd5b610095601281565b6040519081526020015b60405180910390f35b6002546100bb906001600160a01b031681565b6040516001600160a01b03909116815260200161009f565b6100956100e136600461047f565b60016020526000908152604090205481565b61010661010136600461047f565b61016a565b60405161009f91906104f5565b6100956201518081565b610125600181565b604051901515815260200161009f565b610106604051806040016040528060038152602001621554d160ea1b81525081565b61009561016536600461047f565b610204565b6000602081905290815260409020805461018390610508565b80601f01602080910402602001604051908101604052809291908181526020018280546101af90610508565b80156101fc5780601f106101d1576101008083540402835291602001916101fc565b820191906000526020600020905b8154815290600101906020018083116101df57829003601f168201915b505050505081565b6001600160a01b0381166000908152602081905260408120805482916102b09161022d90610508565b80601f016020809104026020016040519081016040528092919081815260200182805461025990610508565b80156102a65780601f1061027b576101008083540402835291602001916102a6565b820191906000526020600020905b81548152906001019060200180831161028957829003601f168201915b5050505050610300565b6001600160a01b0384166000908152600160205260409020549091506102d860126024610559565b6102e390600a610654565b82516102ef9190610660565b6102f9919061067f565b9392505050565b61032460405180606001604052806000815260200160008152602001600081525090565b60025460408051808201825260038152621554d160ea1b6020820152905163195556f360e21b81526000926001600160a01b0316916365555bcc9161036d9187916004016106a1565b606060405180830381865afa15801561038a573d6000803e3d6000fd5b505050506040513d601f19601f820116820180604052508101906103ae91906106cf565b80519091506103fb5760405162461bcd60e51b815260206004820152601460248201527370726963652063616e6e6f74206265207a65726f60601b60448201526064015b60405180910390fd5b6201518081604001514261040f9190610559565b10801561042d57506201518081602001514261042b9190610559565b105b6104795760405162461bcd60e51b815260206004820152601760248201527f6f7261636c652064617461206973206f7574646174656400000000000000000060448201526064016103f2565b92915050565b60006020828403121561049157600080fd5b81356001600160a01b03811681146102f957600080fd5b6000815180845260005b818110156104ce576020818501810151868301820152016104b2565b818111156104e0576000602083870101525b50601f01601f19169290920160200192915050565b6020815260006102f960208301846104a8565b600181811c9082168061051c57607f821691505b6020821081141561053d57634e487b7160e01b600052602260045260246000fd5b50919050565b634e487b7160e01b600052601160045260246000fd5b60008282101561056b5761056b610543565b500390565b600181815b808511156105ab57816000190482111561059157610591610543565b8085161561059e57918102915b93841c9390800290610575565b509250929050565b6000826105c257506001610479565b816105cf57506000610479565b81600181146105e557600281146105ef5761060b565b6001915050610479565b60ff84111561060057610600610543565b50506001821b610479565b5060208310610133831016604e8410600b841016171561062e575081810a610479565b6106388383610570565b806000190482111561064c5761064c610543565b029392505050565b60006102f983836105b3565b600081600019048311821515161561067a5761067a610543565b500290565b60008261069c57634e487b7160e01b600052601260045260246000fd5b500490565b6040815260006106b460408301856104a8565b82810360208401526106c681856104a8565b95945050505050565b6000606082840312156106e157600080fd5b6040516060810181811067ffffffffffffffff8211171561071257634e487b7160e01b600052604160045260246000fd5b8060405250825181526020830151602082015260408301516040820152809150509291505056fea26469706673582212206416ceade053d086889112eedd8805ee2194cd27a8dea4673c04974b699bc50364736f6c634300080a0033",
  "devdoc": {
    "kind": "dev",
    "methods": {
      "constructor": {
        "details": "cTokens, _symbols and _baseUnits have to be passed in array in the exact sequence for each param.",
        "params": {
          "_baseUnits": "Smallest denomination array for underlying tokens (e.g. 1000000 for USDC)",
          "_cTokens": "Compound cToken address array",
          "_ref": "Contract of the Band Oracle price feed",
          "_symbols": "CToken's underlying asset symbol array that is supported by Band"
        }
      },
      "getUnderlyingPrice(address)": {
        "details": "Comptroller expects this format: unscaledPrice * 1e36 / base_units",
        "params": {
          "cToken": "The cToken market address"
        },
        "returns": {
          "_0": "Underlying asset's price scaled by the expected format"
        }
      }
    },
    "version": 1
  },
  "userdoc": {
    "kind": "user",
    "methods": {
      "ORACLE_DECIMALS()": {
        "notice": "The decimals of the retrieved price of the oracle"
      },
      "ORACLE_STALENESS_THRESHOLD()": {
        "notice": "The maximum allowed period since the latest updated data"
      },
      "QUOTE()": {
        "notice": "The default quote used for compound is USD"
      },
      "constructor": {
        "notice": "Construct a cToken configuration"
      },
      "getUnderlyingPrice(address)": {
        "notice": "Get the price of an underlying cToken asset in expected format by Comptroller"
      },
      "isPriceOracle()": {
        "notice": "Indicator that this is a PriceOracle contract (for inspection)"
      },
      "ref()": {
        "notice": "Band Oracle reference contract"
      }
    },
    "notice": "Band Price Oracle Contract returns USD value of cToken's underlying asset",
    "version": 1
  },
  "storageLayout": {
    "storage": [
      {
        "astId": 3998,
        "contract": "contracts/PriceOracle/BandPriceOracle.sol:BandPriceOracle",
        "label": "cTokenSymbols",
        "offset": 0,
        "slot": "0",
        "type": "t_mapping(t_contract(CToken)2182,t_string_storage)"
      },
      {
        "astId": 4003,
        "contract": "contracts/PriceOracle/BandPriceOracle.sol:BandPriceOracle",
        "label": "baseUnits",
        "offset": 0,
        "slot": "1",
        "type": "t_mapping(t_contract(CToken)2182,t_uint256)"
      },
      {
        "astId": 4007,
        "contract": "contracts/PriceOracle/BandPriceOracle.sol:BandPriceOracle",
        "label": "ref",
        "offset": 0,
        "slot": "2",
        "type": "t_contract(IStdReference)3990"
      }
    ],
    "types": {
      "t_contract(CToken)2182": {
        "encoding": "inplace",
        "label": "contract CToken",
        "numberOfBytes": "20"
      },
      "t_contract(IStdReference)3990": {
        "encoding": "inplace",
        "label": "contract IStdReference",
        "numberOfBytes": "20"
      },
      "t_mapping(t_contract(CToken)2182,t_string_storage)": {
        "encoding": "mapping",
        "key": "t_contract(CToken)2182",
        "label": "mapping(contract CToken => string)",
        "numberOfBytes": "32",
        "value": "t_string_storage"
      },
      "t_mapping(t_contract(CToken)2182,t_uint256)": {
        "encoding": "mapping",
        "key": "t_contract(CToken)2182",
        "label": "mapping(contract CToken => uint256)",
        "numberOfBytes": "32",
        "value": "t_uint256"
      },
      "t_string_storage": {
        "encoding": "bytes",
        "label": "string",
        "numberOfBytes": "32"
      },
      "t_uint256": {
        "encoding": "inplace",
        "label": "uint256",
        "numberOfBytes": "32"
      }
    }
  }
}