{
  "address": "0xb111909e4AfcC1BEE38FC57CBE65033A5B24D79D",
  "abi": [
    {
      "inputs": [
        {
          "internalType": "uint256",
          "name": "blocksPerYear_",
          "type": "uint256"
        },
        {
          "internalType": "uint256",
          "name": "baseRatePerYear",
          "type": "uint256"
        },
        {
          "internalType": "uint256",
          "name": "multiplierPerYear",
          "type": "uint256"
        },
        {
          "internalType": "uint256",
          "name": "jumpMultiplierPerYear",
          "type": "uint256"
        },
        {
          "internalType": "uint256",
          "name": "kink_",
          "type": "uint256"
        },
        {
          "internalType": "address",
          "name": "owner_",
          "type": "address"
        },
        {
          "internalType": "string",
          "name": "name_",
          "type": "string"
        }
      ],
      "stateMutability": "nonpayable",
      "type": "constructor"
    },
    {
      "anonymous": false,
      "inputs": [
        {
          "indexed": false,
          "internalType": "uint256",
          "name": "baseRatePerBlock",
          "type": "uint256"
        },
        {
          "indexed": false,
          "internalType": "uint256",
          "name": "multiplierPerBlock",
          "type": "uint256"
        },
        {
          "indexed": false,
          "internalType": "uint256",
          "name": "jumpMultiplierPerBlock",
          "type": "uint256"
        },
        {
          "indexed": false,
          "internalType": "uint256",
          "name": "kink",
          "type": "uint256"
        }
      ],
      "name": "NewInterestParams",
      "type": "event"
    },
    {
      "anonymous": false,
      "inputs": [
        {
          "indexed": true,
          "internalType": "address",
          "name": "previousOwner",
          "type": "address"
        },
        {
          "indexed": true,
          "internalType": "address",
          "name": "newOwner",
          "type": "address"
        }
      ],
      "name": "OwnershipTransferred",
      "type": "event"
    },
    {
      "inputs": [],
      "name": "baseRatePerBlock",
      "outputs": [
        {
          "internalType": "uint256",
          "name": "",
          "type": "uint256"
        }
      ],
      "stateMutability": "view",
      "type": "function"
    },
    {
      "inputs": [],
      "name": "blocksPerYear",
      "outputs": [
        {
          "internalType": "uint256",
          "name": "",
          "type": "uint256"
        }
      ],
      "stateMutability": "view",
      "type": "function"
    },
    {
      "inputs": [
        {
          "internalType": "uint256",
          "name": "cash",
          "type": "uint256"
        },
        {
          "internalType": "uint256",
          "name": "borrows",
          "type": "uint256"
        },
        {
          "internalType": "uint256",
          "name": "reserves",
          "type": "uint256"
        }
      ],
      "name": "getBorrowRate",
      "outputs": [
        {
          "internalType": "uint256",
          "name": "",
          "type": "uint256"
        }
      ],
      "stateMutability": "view",
      "type": "function"
    },
    {
      "inputs": [
        {
          "internalType": "uint256",
          "name": "cash",
          "type": "uint256"
        },
        {
          "internalType": "uint256",
          "name": "borrows",
          "type": "uint256"
        },
        {
          "internalType": "uint256",
          "name": "reserves",
          "type": "uint256"
        },
        {
          "internalType": "uint256",
          "name": "reserveFactorMantissa",
          "type": "uint256"
        }
      ],
      "name": "getSupplyRate",
      "outputs": [
        {
          "internalType": "uint256",
          "name": "",
          "type": "uint256"
        }
      ],
      "stateMutability": "view",
      "type": "function"
    },
    {
      "inputs": [],
      "name": "isInterestRateModel",
      "outputs": [
        {
          "internalType": "bool",
          "name": "",
          "type": "bool"
        }
      ],
      "stateMutability": "view",
      "type": "function"
    },
    {
      "inputs": [],
      "name": "isOwner",
      "outputs": [
        {
          "internalType": "bool",
          "name": "",
          "type": "bool"
        }
      ],
      "stateMutability": "view",
      "type": "function"
    },
    {
      "inputs": [],
      "name": "jumpMultiplierPerBlock",
      "outputs": [
        {
          "internalType": "uint256",
          "name": "",
          "type": "uint256"
        }
      ],
      "stateMutability": "view",
      "type": "function"
    },
    {
      "inputs": [],
      "name": "kink",
      "outputs": [
        {
          "internalType": "uint256",
          "name": "",
          "type": "uint256"
        }
      ],
      "stateMutability": "view",
      "type": "function"
    },
    {
      "inputs": [],
      "name": "multiplierPerBlock",
      "outputs": [
        {
          "internalType": "uint256",
          "name": "",
          "type": "uint256"
        }
      ],
      "stateMutability": "view",
      "type": "function"
    },
    {
      "inputs": [],
      "name": "name",
      "outputs": [
        {
          "internalType": "string",
          "name": "",
          "type": "string"
        }
      ],
      "stateMutability": "view",
      "type": "function"
    },
    {
      "inputs": [],
      "name": "owner",
      "outputs": [
        {
          "internalType": "address",
          "name": "",
          "type": "address"
        }
      ],
      "stateMutability": "view",
      "type": "function"
    },
    {
      "inputs": [],
      "name": "renounceOwnership",
      "outputs": [],
      "stateMutability": "nonpayable",
      "type": "function"
    },
    {
      "inputs": [
        {
          "internalType": "address",
          "name": "newOwner",
          "type": "address"
        }
      ],
      "name": "transferOwnership",
      "outputs": [],
      "stateMutability": "nonpayable",
      "type": "function"
    },
    {
      "inputs": [
        {
          "internalType": "uint256",
          "name": "blocksPerYear_",
          "type": "uint256"
        }
      ],
      "name": "updateBlocksPerYear",
      "outputs": [],
      "stateMutability": "nonpayable",
      "type": "function"
    },
    {
      "inputs": [
        {
          "internalType": "uint256",
          "name": "baseRatePerYear",
          "type": "uint256"
        },
        {
          "internalType": "uint256",
          "name": "multiplierPerYear",
          "type": "uint256"
        },
        {
          "internalType": "uint256",
          "name": "jumpMultiplierPerYear",
          "type": "uint256"
        },
        {
          "internalType": "uint256",
          "name": "kink_",
          "type": "uint256"
        }
      ],
      "name": "updateJumpRateModel",
      "outputs": [],
      "stateMutability": "nonpayable",
      "type": "function"
    },
    {
      "inputs": [
        {
          "internalType": "uint256",
          "name": "cash",
          "type": "uint256"
        },
        {
          "internalType": "uint256",
          "name": "borrows",
          "type": "uint256"
        },
        {
          "internalType": "uint256",
          "name": "reserves",
          "type": "uint256"
        }
      ],
      "name": "utilizationRate",
      "outputs": [
        {
          "internalType": "uint256",
          "name": "",
          "type": "uint256"
        }
      ],
      "stateMutability": "pure",
      "type": "function"
    }
  ],
  "transactionHash": "0x6f8808f984f33dbe59b2880a1cbbf127aaa98f90fc9db1d0b41a0aca15eeb8dc",
  "args": [
    31536000,
    "25000000000000000",
    "225000000000000000",
    "5000000000000000000",
    "800000000000000000",
    "0x643c8A8120eFB675E82C5C58d8D473f5aDd0B5e6",
    "VolatileRateModel"
  ],
  "numDeployments": 1,
  "solcInputHash": "836895fa578b38aff0e741ce9c3400fe",
  "bytecode": "0x60806040523480156200001157600080fd5b506040516200106838038062001068833981016040819052620000349162000449565b600080546001600160a01b03191633908117825560405190919060008051602062001048833981519152908290a3600187905580516200007c9060069060208401906200035a565b506200008882620000a3565b620000968686868662000158565b50505050505050620005ec565b6001600160a01b0381166200010e5760405162461bcd60e51b815260206004820152602660248201527f4f776e61626c653a206e6577206f776e657220697320746865207a65726f206160448201526564647265737360d01b60648201526084015b60405180910390fd5b600080546040516001600160a01b03808516939216916000805160206200104883398151915291a3600080546001600160a01b0319166001600160a01b0392909216919091179055565b62000174600154856200025160201b6200055a1790919060201c565b600381905550620001d06200019a82600154620002a460201b620005a51790919060201c565b620001bc670de0b6b3a764000086620002a460201b620005a51790919060201c565b6200025160201b6200055a1790919060201c565b600281905550620001f2600154836200025160201b6200055a1790919060201c565b60048190556005829055600354600254604080519283526020830191909152810191909152606081018290527f6960ab234c7ef4b0c9197100f5393cfcde7c453ac910a27bd2000aa1dd4c068d9060800160405180910390a150505050565b60006200029b83836040518060400160405280601a81526020017f536166654d6174683a206469766973696f6e206279207a65726f0000000000008152506200031e60201b60201c565b90505b92915050565b600082620002b5575060006200029e565b82820282620002c5858362000557565b146200029b5760405162461bcd60e51b815260206004820152602160248201527f536166654d6174683a206d756c7469706c69636174696f6e206f766572666c6f6044820152607760f81b606482015260840162000105565b60008183620003425760405162461bcd60e51b81526004016200010591906200057a565b50600062000351848662000557565b95945050505050565b8280546200036890620005af565b90600052602060002090601f0160209004810192826200038c5760008555620003d7565b82601f10620003a757805160ff1916838001178555620003d7565b82800160010185558215620003d7579182015b82811115620003d7578251825591602001919060010190620003ba565b50620003e5929150620003e9565b5090565b5b80821115620003e55760008155600101620003ea565b634e487b7160e01b600052604160045260246000fd5b60005b838110156200043357818101518382015260200162000419565b8381111562000443576000848401525b50505050565b600080600080600080600060e0888a0312156200046557600080fd5b8751602089015160408a015160608b015160808c015160a08d0151949b50929950909750955093506001600160a01b0381168114620004a357600080fd5b60c08901519092506001600160401b0380821115620004c157600080fd5b818a0191508a601f830112620004d657600080fd5b815181811115620004eb57620004eb62000400565b604051601f8201601f19908116603f0116810190838211818310171562000516576200051662000400565b816040528281528d60208487010111156200053057600080fd5b6200054383602083016020880162000416565b809550505050505092959891949750929550565b6000826200057557634e487b7160e01b600052601260045260246000fd5b500490565b60208152600082518060208401526200059b81604085016020870162000416565b601f01601f19169190910160400192915050565b600181811c90821680620005c457607f821691505b60208210811415620005e657634e487b7160e01b600052602260045260246000fd5b50919050565b610a4c80620005fc6000396000f3fe608060405234801561001057600080fd5b50600436106101005760003560e01c80638f32d59b11610097578063b9f9850a11610066578063b9f9850a146101f2578063f14039de146101fb578063f2fde38b14610204578063fd2da3391461021757600080fd5b80638f32d59b146101b0578063a3193e2e146101c3578063a385fb96146101d6578063b8168816146101df57600080fd5b80636e71e2d8116100d35780636e71e2d814610171578063715018a6146101845780638726bb891461018c5780638da5cb5b1461019557600080fd5b806306fdde031461010557806315f24053146101235780632037f3e7146101445780632191f92a14610159575b600080fd5b61010d610220565b60405161011a919061086a565b60405180910390f35b6101366101313660046108bf565b6102ae565b60405190815260200161011a565b6101576101523660046108eb565b61037a565b005b610161600181565b604051901515815260200161011a565b61013661017f3660046108bf565b6103bf565b610157610414565b61013660025481565b6000546040516001600160a01b03909116815260200161011a565b6000546001600160a01b03163314610161565b6101576101d136600461091d565b610488565b61013660015481565b6101366101ed3660046108eb565b6104b7565b61013660045481565b61013660035481565b610157610212366004610936565b610524565b61013660055481565b6006805461022d9061095f565b80601f01602080910402602001604051908101604052809291908181526020018280546102599061095f565b80156102a65780601f1061027b576101008083540402835291602001916102a6565b820191906000526020600020905b81548152906001019060200180831161028957829003601f168201915b505050505081565b6000806102bc8585856103bf565b90506005548111610302576102fa6003546102f4670de0b6b3a76400006102ee600254866105a590919063ffffffff16565b9061055a565b90610619565b915050610373565b600061032d6003546102f4670de0b6b3a76400006102ee6002546005546105a590919063ffffffff16565b905060006103466005548461066e90919063ffffffff16565b905061036d826102f4670de0b6b3a76400006102ee600454866105a590919063ffffffff16565b93505050505b9392505050565b6000546001600160a01b031633146103ad5760405162461bcd60e51b81526004016103a49061099a565b60405180910390fd5b6103b9848484846106b0565b50505050565b60008215806103d65750816103d48585610619565b145b156103e357506000610373565b61040c6103fa836103f48787610619565b9061066e565b6102ee85670de0b6b3a76400006105a5565b949350505050565b6000546001600160a01b0316331461043e5760405162461bcd60e51b81526004016103a49061099a565b600080546040516001600160a01b03909116907f8be0079c531659141344cd1fd0a4f28419497f9722a3daafe3b4186f6b6457e0908390a3600080546001600160a01b0319169055565b6000546001600160a01b031633146104b25760405162461bcd60e51b81526004016103a49061099a565b600155565b6000806104cc670de0b6b3a76400008461066e565b905060006104db8787876102ae565b905060006104f5670de0b6b3a76400006102ee84866105a5565b9050610518670de0b6b3a76400006102ee836105128c8c8c6103bf565b906105a5565b98975050505050505050565b6000546001600160a01b0316331461054e5760405162461bcd60e51b81526004016103a49061099a565b61055781610742565b50565b600061059c83836040518060400160405280601a81526020017f536166654d6174683a206469766973696f6e206279207a65726f000000000000815250610802565b90505b92915050565b6000826105b45750600061059f565b828202826105c285836109cf565b1461059c5760405162461bcd60e51b815260206004820152602160248201527f536166654d6174683a206d756c7469706c69636174696f6e206f766572666c6f6044820152607760f81b60648201526084016103a4565b60008282018381101561059c5760405162461bcd60e51b815260206004820152601b60248201527f536166654d6174683a206164646974696f6e206f766572666c6f77000000000060448201526064016103a4565b600061059c83836040518060400160405280601f81526020017f536166654d6174683a207375627472616374696f6e20756e646572666c6f7700815250610839565b6001546106be90859061055a565b6003556001546106d2906103fa90836105a5565b6002556001546106e390839061055a565b60048190556005829055600354600254604080519283526020830191909152810191909152606081018290527f6960ab234c7ef4b0c9197100f5393cfcde7c453ac910a27bd2000aa1dd4c068d9060800160405180910390a150505050565b6001600160a01b0381166107a75760405162461bcd60e51b815260206004820152602660248201527f4f776e61626c653a206e6577206f776e657220697320746865207a65726f206160448201526564647265737360d01b60648201526084016103a4565b600080546040516001600160a01b03808516939216917f8be0079c531659141344cd1fd0a4f28419497f9722a3daafe3b4186f6b6457e091a3600080546001600160a01b0319166001600160a01b0392909216919091179055565b600081836108235760405162461bcd60e51b81526004016103a4919061086a565b50600061083084866109cf565b95945050505050565b6000818484111561085d5760405162461bcd60e51b81526004016103a4919061086a565b50600061083084866109f1565b600060208083528351808285015260005b818110156108975785810183015185820160400152820161087b565b818111156108a9576000604083870101525b50601f01601f1916929092016040019392505050565b6000806000606084860312156108d457600080fd5b505081359360208301359350604090920135919050565b6000806000806080858703121561090157600080fd5b5050823594602084013594506040840135936060013592509050565b60006020828403121561092f57600080fd5b5035919050565b60006020828403121561094857600080fd5b81356001600160a01b038116811461059c57600080fd5b600181811c9082168061097357607f821691505b6020821081141561099457634e487b7160e01b600052602260045260246000fd5b50919050565b6020808252818101527f4f776e61626c653a2063616c6c6572206973206e6f7420746865206f776e6572604082015260600190565b6000826109ec57634e487b7160e01b600052601260045260246000fd5b500490565b600082821015610a1157634e487b7160e01b600052601160045260246000fd5b50039056fea2646970667358221220d8505f9798377c78636b6285a1998a4e28b541885f1de3853c35c21adb5fa43964736f6c634300080a00338be0079c531659141344cd1fd0a4f28419497f9722a3daafe3b4186f6b6457e0",
  "devdoc": {
    "author": "Compound (modified by Dharma Labs)",
    "kind": "dev",
    "methods": {
      "constructor": {
        "params": {
          "baseRatePerYear": "The approximate target base APR, as a mantissa (scaled by 1e18)",
          "jumpMultiplierPerYear": "The multiplierPerBlock after hitting a specified utilization point",
          "kink_": "The utilization point at which the jump multiplier is applied",
          "multiplierPerYear": "The rate of increase in interest rate wrt utilization (scaled by 1e18)",
          "name_": "User-friendly name for the new contract",
          "owner_": "Sets the owner of the contract to someone other than msgSender"
        }
      },
      "getBorrowRate(uint256,uint256,uint256)": {
        "params": {
          "borrows": "The amount of borrows in the market",
          "cash": "The amount of cash in the market",
          "reserves": "The amount of reserves in the market"
        },
        "returns": {
          "_0": "The borrow rate percentage per block as a mantissa (scaled by 1e18)"
        }
      },
      "getSupplyRate(uint256,uint256,uint256,uint256)": {
        "params": {
          "borrows": "The amount of borrows in the market",
          "cash": "The amount of cash in the market",
          "reserveFactorMantissa": "The current reserve factor for the market",
          "reserves": "The amount of reserves in the market"
        },
        "returns": {
          "_0": "The supply rate percentage per block as a mantissa (scaled by 1e18)"
        }
      },
      "isOwner()": {
        "details": "Returns true if the caller is the current owner."
      },
      "owner()": {
        "details": "Returns the address of the current owner."
      },
      "renounceOwnership()": {
        "details": "Leaves the contract without owner. It will not be possible to call `onlyOwner` functions anymore. Can only be called by the current owner. NOTE: Renouncing ownership will leave the contract without an owner, thereby removing any functionality that is only available to the owner."
      },
      "transferOwnership(address)": {
        "details": "Transfers ownership of the contract to a new account (`newOwner`). Can only be called by the current owner."
      },
      "updateBlocksPerYear(uint256)": {
        "params": {
          "blocksPerYear_": "The new estimated eth blocks per year."
        }
      },
      "updateJumpRateModel(uint256,uint256,uint256,uint256)": {
        "params": {
          "baseRatePerYear": "The approximate target base APR, as a mantissa (scaled by 1e18)",
          "jumpMultiplierPerYear": "The multiplierPerBlock after hitting a specified utilization point",
          "kink_": "The utilization point at which the jump multiplier is applied",
          "multiplierPerYear": "The rate of increase in interest rate wrt utilization (scaled by 1e18)"
        }
      },
      "utilizationRate(uint256,uint256,uint256)": {
        "params": {
          "borrows": "The amount of borrows in the market",
          "cash": "The amount of cash in the market",
          "reserves": "The amount of reserves in the market (currently unused)"
        },
        "returns": {
          "_0": "The utilization rate as a mantissa between [0, 1e18]"
        }
      }
    },
    "title": "Compound's JumpRateModel Contract V5",
    "version": 1
  },
  "userdoc": {
    "kind": "user",
    "methods": {
      "baseRatePerBlock()": {
        "notice": "The base interest rate which is the y-intercept when utilization rate is 0"
      },
      "blocksPerYear()": {
        "notice": "The approximate number of blocks per year that is assumed by the interest rate model"
      },
      "constructor": {
        "notice": "Construct an interest rate model"
      },
      "getBorrowRate(uint256,uint256,uint256)": {
        "notice": "Calculates the current borrow rate per block, with the error code expected by the market"
      },
      "getSupplyRate(uint256,uint256,uint256,uint256)": {
        "notice": "Calculates the current supply rate per block"
      },
      "isInterestRateModel()": {
        "notice": "Indicator that this is an InterestRateModel contract (for inspection)"
      },
      "jumpMultiplierPerBlock()": {
        "notice": "The multiplierPerBlock after hitting a specified utilization point"
      },
      "kink()": {
        "notice": "The utilization point at which the jump multiplier is applied"
      },
      "multiplierPerBlock()": {
        "notice": "The multiplier of utilization rate that gives the slope of the interest rate"
      },
      "name()": {
        "notice": "A name for user-friendliness, e.g. WBTC"
      },
      "updateBlocksPerYear(uint256)": {
        "notice": "Updates the blocksPerYear in order to make interest calculations simpler"
      },
      "updateJumpRateModel(uint256,uint256,uint256,uint256)": {
        "notice": "Update the parameters of the interest rate model (only callable by owner, i.e. Timelock)"
      },
      "utilizationRate(uint256,uint256,uint256)": {
        "notice": "Calculates the utilization rate of the market: `borrows / (cash + borrows - reserves)`"
      }
    },
    "notice": "Version 2 modifies Version 1 by enabling updateable parameters.Version 3 includes Ownable and have updatable blocksPerYear.Version 4 moves blocksPerYear to the constructor.Version 5 adds and additional conditional check to the utilizationRate.",
    "version": 1
  },
  "storageLayout": {
    "storage": [
      {
        "astId": 10584,
        "contract": "contracts/JumpRateModelV5.sol:JumpRateModelV5",
        "label": "_owner",
        "offset": 0,
        "slot": "0",
        "type": "t_address"
      },
      {
        "astId": 10183,
        "contract": "contracts/JumpRateModelV5.sol:JumpRateModelV5",
        "label": "blocksPerYear",
        "offset": 0,
        "slot": "1",
        "type": "t_uint256"
      },
      {
        "astId": 10186,
        "contract": "contracts/JumpRateModelV5.sol:JumpRateModelV5",
        "label": "multiplierPerBlock",
        "offset": 0,
        "slot": "2",
        "type": "t_uint256"
      },
      {
        "astId": 10189,
        "contract": "contracts/JumpRateModelV5.sol:JumpRateModelV5",
        "label": "baseRatePerBlock",
        "offset": 0,
        "slot": "3",
        "type": "t_uint256"
      },
      {
        "astId": 10192,
        "contract": "contracts/JumpRateModelV5.sol:JumpRateModelV5",
        "label": "jumpMultiplierPerBlock",
        "offset": 0,
        "slot": "4",
        "type": "t_uint256"
      },
      {
        "astId": 10195,
        "contract": "contracts/JumpRateModelV5.sol:JumpRateModelV5",
        "label": "kink",
        "offset": 0,
        "slot": "5",
        "type": "t_uint256"
      },
      {
        "astId": 10198,
        "contract": "contracts/JumpRateModelV5.sol:JumpRateModelV5",
        "label": "name",
        "offset": 0,
        "slot": "6",
        "type": "t_string_storage"
      }
    ],
    "types": {
      "t_address": {
        "encoding": "inplace",
        "label": "address",
        "numberOfBytes": "20"
      },
      "t_string_storage": {
        "encoding": "bytes",
        "label": "string",
        "numberOfBytes": "32"
      },
      "t_uint256": {
        "encoding": "inplace",
        "label": "uint256",
        "numberOfBytes": "32"
      }
    }
  }
}